:100000000C942A000C943F000C943F000C943F0089
:100010000C943F000C943F000C943F000C943F0064
:100020000C943F000C943F000C943F000C943F0054
:100030000C943F000C943F000C943F000C943F0044
:100040000C943F000C943F000C943F000C943F0034
:100050000C943F0011241FBECFE5D8E0DEBFCDBF1A
:1000600010E0A0E6B0E0E4E5F1E002C005900D92FA
:10007000A837B107D9F70E94A4000C94A8000C94EB
:1000800000008FEF8ABB87BB84BB1BBA18BA15BAB6
:100090000895CF93DF93CDB7DEB768970FB6F89486
:1000A000DEBF0FBECDBF88E0E0E6F0E0DE011196D6
:1000B00001900D928A95E1F788E0E8E6F0E0DE0134
:1000C000199601900D928A95E1F788E0E0E7F0E05B
:1000D000DE01519601900D928A95E1F7FE0131966D
:1000E0008E01075F1F4FCE014196A8011BBA18BAB7
:1000F00015BA21912BBB2FE33DE063E02150304046
:100100006040E1F700C000001BBAD8012D918D01BD
:1001100028BBBFE32DE033E0B15020403040E1F791
:1001200000C0000018BADC012D91CD0125BBBFE352
:100130002DE033E0B15020403040E1F700C0000036
:10014000E417F50799F6CACF0E9441000E944900C2
:04015000F894FFCF51
:10015400010204081020408002040810204080019D
:08016400040810204080010294
:00000001FF
