:100000000C942A000C943F000C943F000C943F0089
:100010000C943F000C943F000C943F000C943F0064
:100020000C943F000C943F000C943F000C943F0054
:100030000C943F000C943F000C943F000C943F0044
:100040000C943F000C943F000C943F000C943F0034
:100050000C943F0011241FBECFE5D8E0DEBFCDBF1A
:1000600010E0A0E6B0E0E2E0F1E002C005900D9201
:10007000A037B107D9F70E9441000C947F000C947F
:100080000000CF93DF93CDB7DEB760970FB6F8943B
:10009000DEBF0FBECDBF80E1E0E6F0E0DE011196ED
:1000A00001900D928A95E1F78FEF81BB1ABA8BBB55
:1000B0008FEF9FEF20E041E030E0C89903C02111AD
:1000C00001C0242FC89B11C0E1E0F0E0EC0FFD1F40
:1000D000E80FF91F208122BB01968031910524F0A1
:1000E00080E090E0232F01C0232F5FE36DE073E0F9
:1000F000515060407040E1F700C00000DECFF8943E
:02010000FFCF2F
:100102003F06DB4F666D7D07FF6FF7FCB95EF9F1C5
:00000001FF
