:100000000C942A000C943F000C943F000C943F0089
:100010000C943F000C943F000C943F000C943F0064
:100020000C943F000C943F000C943F000C943F0054
:100030000C943F000C943F000C943F000C943F0044
:100040000C943F000C943F000C943F000C943F0034
:100050000C943F0011241FBECFE5D8E0DEBFCDBF1A
:1000600010E0A0E6B0E0E8E5F1E002C005900D92F6
:10007000AA36B107D9F70E9441000C94AA000C944B
:100080000000CF93DF93CDB7DEB72A970FB6F89471
:10009000DEBF0FBECDBF8AE0E0E6F0E0DE011196E4
:1000A00001900D928A95E1F78FEF84BB81BB20E030
:1000B00030E040E00AE010E0EE24E394F12CC901C6
:1000C000B8010E948200E1E0F0E0EC0FFD1FE80FB4
:1000D000F91F808182BBE1E0F0E0EC0FFD1FE60F2D
:1000E000F71F808185BBC89B05C0411103C02F5FEE
:1000F0003F4F4E2DC89B4F2D2436310501F720E090
:1001000030E0DDCF97FB072E16F4009407D077FD83
:1001100009D00E94960007FC05D03EF49095819589
:100120009F4F0895709561957F4F0895AA1BBB1B43
:1001300051E107C0AA1FBB1FA617B70710F0A61BE7
:10014000B70B881F991F5A95A9F780959095BC0108
:08015000CD010895F894FFCFE2
:0A0158003F06DB4F666D7D07FF6F69
:00000001FF
