:100000000C942A000C943F000C943F000C943F0089
:100010000C943F000C943F000C943F000C943F0064
:100020000C943F000C943F000C943F000C943F0054
:100030000C943F000C943F000C943F000C943F0044
:100040000C943F000C943F000C943F000C943F0034
:100050000C943F0011241FBECFE5D8E0DEBFCDBF1A
:1000600010E0A0E6B0E0EEECF1E002C005900D92E9
:10007000AA36B107D9F70E9441000C94E5000C9410
:100080000000CF93DF93CDB7DEB72A970FB6F89471
:10009000DEBF0FBECDBF8AE0E0E6F0E0DE011196E4
:1000A00001900D928A95E1F78FEF8ABB87BB84BBE5
:1000B00081BB82E08BBB8F8182BB898185BB8981BB
:1000C00088BB2FE946E881E0215040408040E1F7BD
:1000D00000C0000026E030E00F2EFAE0EF2EF12CF9
:1000E000F02D04E610E016C08BB3880F8BBB81EEB9
:1000F00091E80197F1F700C000008BB38038A1F7B9
:100100008BB386958BBB81EE91E80197F1F700C028
:100110000000EACF21503109C901B7010E94BD009A
:10012000E1E0F0E0EC0FFD1FE80FF91F808182BBDA
:10013000CB01B7010E94BD00E1E0F0E0EC0FFD1F34
:10014000E80FF91F808185BBC901B8010E94BD007D
:10015000E1E0F0E0EC0FFD1FE60FF71F808188BBA8
:100160009FE946E881E0915040408040E1F700C0BF
:1001700000002115310571F6B7CF97FB072E16F455
:10018000009407D077FD09D00E94D10007FC05D06C
:100190003EF4909581959F4F0895709561957F4F9E
:1001A0000895AA1BBB1B51E107C0AA1FBB1FA617BE
:1001B000B70710F0A61BB70B881F991F5A95A9F710
:0E01C00080959095BC01CD010895F894FFCF75
:0A01CE00C0F9A4B0999282F8809065
:00000001FF
