:100000000C942A000C943F000C943F000C943F0089
:100010000C943F000C943F000C943F000C943F0064
:100020000C943F000C943F000C943F000C943F0054
:100030000C943F000C943F000C943F000C943F0044
:100040000C943F000C943F000C943F000C943F0034
:100050000C943F0011241FBECFE5D8E0DEBFCDBF1A
:1000600010E0A0E6B0E0E2E1F2E002C005900D92FF
:10007000A037B107D9F70E9441000C9407010C94F6
:100080000000CF93DF93CDB7DEB72F970FB6F8946C
:10009000DEBF0FBECDBF8AE0E0E6F0E0DE011196E4
:1000A00001900D928A95E1F785E0EAE6F0E0DE0145
:1000B0001B9601900D928A95E1F78FEF8ABB87BB63
:1000C00084BB81BB88BB0AE010E07E012BE0E20E1E
:1000D000F11C4FEFD89A2DE030E0C901B8010E9421
:1000E000DF00E1E0F0E0EC0FFD1FE80FF91F808179
:1000F00085BBE1E0F0E0EC0FFD1FE60FF71F80810C
:1001000082BB5FE38DE093E0515080409040E1F787
:1001100000C000002150310900F715BA12BAD89872
:10012000DB9AFE013D96829188BB15BA898582BB18
:10013000818188BB8FE39DE023E081509040204087
:10014000E1F700C00000808188BB898585BB12BAB9
:10015000818188BB5FE38DE093E051508040904007
:10016000E1F700C00000EE16FF06E9F648BBDB9899
:10017000DE9A2BE030E0C901B8010E94DF00E1E027
:10018000F0E0EC0FFD1FE80FF91F808185BBE1E077
:10019000F0E0EC0FFD1FE60FF71F808182BB5FE3ED
:1001A0008DE093E0515080409040E1F700C00000A6
:1001B0002150310900F715BA12BADE988BCF97FBA0
:1001C000072E16F4009407D077FD09D00E94F300A3
:1001D00007FC05D03EF4909581959F4F089570954A
:1001E00061957F4F0895AA1BBB1B51E107C0AA1F51
:1001F000BB1FA617B70710F0A61BB70B881F991FC8
:100200005A95A9F780959095BC01CD010895F89471
:02021000FFCF1E
:100212003F06DB4F666D7D07FF6FFF00FF00FF00AB
:00000001FF
