:100000000C942A000C943F000C943F000C943F0089
:100010000C943F000C943F000C943F000C943F0064
:100020000C943F000C943F000C943F000C943F0054
:100030000C943F000C943F000C943F000C943F0044
:100040000C943F000C943F000C943F000C943F0034
:100050000C943F0011241FBECFE5D8E0DEBFCDBF1A
:1000600010E0A0E6B0E0E8E8F1E002C005900D92F3
:10007000AA36B107D9F70E9441000C94C2000C9433
:100080000000CF93DF93CDB7DEB72A970FB6F89471
:10009000DEBF0FBECDBF8AE0E0E6F0E0DE011196E4
:1000A00001900D928A95E1F78FEF8ABB87BB84BBE5
:1000B00081BB8E010F5F1F4F0F2EFAE0EF2EF12C48
:1000C000F02DDD24D39442E0D89AFE01359682913A
:1000D00088BB2FE38DE093E0215080409040E1F712
:1000E00000C000000E171F0791F7D898DE9A2FE086
:1000F00030E0D2BAC901B7010E949A00F801E80FB6
:10010000F91F808185BB89EF90E00197F1F700C06E
:10011000000042BBF801E60FF71F808185BB87EA2C
:1001200091E60197F1F700C000002150310908F76E
:10013000DE98CACF97FB072E16F4009407D077FD00
:1001400009D00E94AE0007FC05D03EF49095819541
:100150009F4F0895709561957F4F0895AA1BBB1B13
:1001600051E107C0AA1FBB1FA617B70710F0A61BB7
:10017000B70B881F991F5A95A9F780959095BC01D8
:08018000CD010895F894FFCFB2
:0A0188003F06DB4F666D7D07FF6F39
:00000001FF
