:100000000C942A000C9447000C9447000C94470071
:100010000C9447000C9447000C9447000C94470044
:100020000C9447000C9447000C9447000C94470034
:100030000C9447000C9447000C9447000C94470024
:100040000C9447000C9447000C9447000C94470014
:100050000C94470011241FBECFE5D8E0DEBFCDBF12
:1000600010E0A0E6B0E0EEE8FBE002C005900D92E3
:10007000A437B107D9F720E0A4E7B0E001C01D9292
:10008000A439B207E1F70E94DD000C94C5050C9479
:1000900000009BB39F70282F207F922B9BBBD8988A
:1000A000D99A35E03A95F1F70000D998EFE8F1E0F8
:1000B0003197F1F700C000002BB32F70F0E18F9F54
:1000C000C0011124822B8BBBD99A35E03A95F1F708
:1000D0000000D9988FE39FE10197F1F700C000007D
:1000E00008959BB39F70282F207F922B9BBBD89A9B
:1000F000D99A35E03A95F1F70000D998EFE8F1E0A8
:100100003197F1F700C000002BB32F70F0E18F9F03
:10011000C0011124822B8BBBD99A35E03A95F1F7B7
:100120000000D9988FE39FE10197F1F700C000002C
:1001300008958FEF8ABB2FEF83EC99E02150804028
:100140009040E1F700C0000083E30E94490082E391
:100150000E94490088E20E9449008CE00E94490008
:1001600081E00E9449008FE39FE10197F1F700C011
:10017000000082E80E94490008950F931F93CF93D7
:10018000FC018081882359F08F01C0E00E9471003A
:10019000CF5FF801EC0FF11D80818111F7CFCF9176
:1001A0001F910F91089581E00E9449008FE39FE124
:1001B0000197F1F700C0000008950E9499008FEFA9
:1001C00084BB87BB90EF91BB9FE092BB85BBEAE00D
:1001D000F0E00CE310E021E0C8E1D0E0839954C0E6
:1001E00080917C0090917D00BF010E94B302DC01F0
:1001F000A05ABF4F8C9188BB80917C0090917D006C
:10020000BF010E94B302DB01A05ABF4F8C9185BB96
:10021000829B0FC08091770081110BC020937700E3
:1002200080917C0090917D00019690937D00809359
:100230007C00829B1092770080917C0090917D00E1
:10024000CC9724F010927D0010927C00819B0FC00F
:100250008091750081110BC02093750080917C0006
:1002600090917D00019790937D0080937C00819B0D
:100270001092750080917C0090917D00992324F468
:1002800010937D0000937C00839B54C080917E007E
:1002900090917F00BF010E94B302DC01A05ABF4FC2
:1002A0008C9188BB80917E0090917F00BF010E945D
:1002B000B302DB01A05ABF4F8C9185BB829B0FC05C
:1002C0008091760081110BC02093760080917E0092
:1002D00090917F00019690937F0080937E00829B97
:1002E0001092760080917E0090917F00489724F0D4
:1002F00010927F0010927E00819B0FC0809174004D
:1003000081110BC02093740080917E0090917F003A
:10031000019790937F0080937E00819B10927400E0
:1003200080917E0090917F00992324F4D0937F00E8
:10033000C0937E00809952CF0F2EFAE6CF2EF0E0C8
:10034000DF2EF02D00E810E00F2EF3E0AF2EB12CE1
:10035000F02DC5E0D0E00F2EFAE0EF2EF12CF02DBD
:1003600080917B008F9380917A008F9380917D00A4
:100370008F9380917C008F9380917F008F938091E9
:100380007E008F93DF92CF921F930F930E94DB0228
:100390000E94D300C8010E94BD002FE33DE083E02E
:1003A000215030408040E1F700C0000080917A0089
:1003B00090917B0001962DB73EB7265F3F4F0FB659
:1003C000F8943EBF0FBE2DBF8C33910529F090935A
:1003D0007B0080937A000DC010927B0010927A000F
:1003E00080917C0090917D00019690937D00809398
:1003F0007C0080917C0090917D00CC9769F41092F4
:100400007D0010927C0080917E0090917F0001968B
:1004100090937F0080937E0080917E0090917F007A
:100420008831910549F410927D0010927C00109261
:100430007F0010927E0002C080FD02C0949A01C02D
:10044000949880917E0090917F00B5010E94B30244
:10045000892B11F4959A01C0959880917E00909116
:100460007F00BE010E94B302892B11F4969A01C04D
:10047000969880917E0090917F0087709927892BB4
:1004800011F4979A01C0979820917A0030917B00DF
:10049000C901BE010E94B302892B11F580917C0035
:1004A00090917D00B7010E94B302FC01E05AFF4F1A
:1004B000808188BB80917C0090917D00B7010E9473
:1004C000B302FB01E05AFF4F808185BB8091780029
:1004D000909179000196909379008093780015C0EF
:1004E000C901B7010E94B302FC01E05AFF4F8081AD
:1004F00088BB80917A0090917B00B7010E94B30283
:10050000FB01E05AFF4F808185BB80917A0090917A
:100510007B00BE010E94B302892B09F021CF80919C
:10052000780090917900029709F01ACF80917E00AF
:1005300090917F00B7010E94B302FC01E05AFF4F87
:10054000808188BB80917E0090917F00B7010E94DE
:10055000B302FB01E05AFF4F808185BB1092790006
:1005600010927800FDCE97FB072E16F4009407D06A
:1005700077FD09D00E94C70207FC05D03EF4909594
:1005800081959F4F0895709561957F4F0895AA1B9F
:10059000BB1B51E107C0AA1FBB1FA617B70710F06E
:1005A000A61BB70B881F991F5A95A9F780959095A0
:1005B000BC01CD010895AEE0B0E0E1EEF2E00C94B4
:1005C0009C050D891E8986E08C831A8309838FEF31
:1005D0009FE79E838D83AE01475E5F4F6F89788D65
:1005E000CE0101960E94FD02EF81F885E00FF11F18
:1005F00010822E96E4E00C94B805ABE0B0E0E3E0A6
:10060000F3E00C948E056C017B018A01FC011782DA
:100610001682838181FFCCC1CE0101963C01F60197
:100620009381F70193FD859193FF81917F01882349
:1006300009F4BAC1853239F493FD859193FF819114
:100640007F01853229F4B60190E00E94F404E7CFDF
:10065000912C212C312CFFE1F315D8F08B3279F05D
:1006600038F4803279F08332A1F4232D20611DC04B
:100670008D3261F0803369F4232D216016C0832D03
:100680008260382EE32DE4603E2E2AC0F32DF86000
:100690001DC037FC2DC020ED280F2A3040F08E32CF
:1006A000B9F436FC81C1232D2064322E19C036FEE8
:1006B00006C08AE0989E200D1124922E11C0EAE017
:1006C0002E9E200D1124222EF32DF0623F2E08C005
:1006D0008C3621F4832D8068382E02C0883641F490
:1006E000F70193FD859193FF81917F018111B3CF34
:1006F000982F9F7D9554933028F40C5F1F4F9FE3F4
:1007000099830DC0833631F0833771F0833509F05A
:1007100059C021C0F801808189830E5F1F4F882452
:100720008394912C530113C02801F2E04F0E511C09
:10073000F801A080B18036FE03C0692D70E002C0D0
:100740006FEF7FEFC5010E94E9044C018201F32D98
:10075000FF773F2E16C0280122E0420E511CF801FF
:10076000A080B18036FE03C0692D70E002C06FEF3B
:100770007FEFC5010E94DE044C01F32DF0683F2E8F
:10078000820133FC1BC0822D90E088169906B0F4DC
:10079000B60180E290E00E94F4042A94F4CFF501BF
:1007A00037FC859137FE81915F01B60190E00E9490
:1007B000F40421102A9421E0821A910881149104F2
:1007C00071F7E8C0843611F0893641F5F80137FE3B
:1007D00007C060817181828193810C5F1F4F08C0C7
:1007E00060817181072E000C880B990B0E5F1F4FE3
:1007F000F32DFF763F2E97FF09C090958095709559
:1008000061957F4F8F4F9F4FF0683F2E2AE030E079
:10081000A3010E943005882E861845C0853731F423
:10082000232D2F7EB22E2AE030E025C0932D997F14
:10083000B92E8F36C1F018F4883579F0B5C08037FD
:1008400019F0883721F0B0C0E92FE061BE2EB4FE68
:100850000DC0FB2DF460BF2E09C034FE0AC0292F45
:100860002660B22E06C028E030E005C020E130E06E
:1008700002C020E132E0F801B7FE07C0608171815B
:10088000828193810C5F1F4F06C06081718180E07F
:1008900090E00E5F1F4FA3010E943005882E86183E
:1008A000FB2DFF773F2E36FE0DC0232D2E7FA22E6F
:1008B000891458F434FE0BC032FC09C0832D8E7E9F
:1008C000A82E05C0B82CA32C03C0B82C01C0B92C8D
:1008D000A4FE0FC0FE01E80DF11D8081803321F4DC
:1008E0009A2D997EA92E09C0A2FE06C0B394B39496
:1008F00004C08A2D867809F0B394A3FC11C0A0FE31
:1009000006C0B21488F4280C922C9B180EC0B214A6
:1009100060F4B60180E290E00E94F404B394F7CF53
:10092000B21418F42B1802C0982C212CA4FE10C06D
:10093000B60180E390E00E94F404A2FE17C0A1FC7F
:1009400003C088E790E002C088E590E0B6010CC0E3
:100950008A2D867859F0A1FE02C08BE201C080E2A8
:10096000A7FC8DE2B60190E00E94F404891438F4EB
:10097000B60180E390E00E94F4049A94F7CF8A9441
:10098000F301E80DF11D8081B60190E00E94F404AE
:100990008110F5CF222009F442CEB60180E290E02A
:1009A0000E94F4042A94F6CFF6018681978102C052
:1009B0008FEF9FEF2B96E2E10C94AA05FC010590C6
:1009C000615070400110D8F7809590958E0F9F1F51
:1009D0000895FC016150704001900110D8F7809596
:1009E00090958E0F9F1F08950F931F93CF93DF93C2
:1009F000FB01238121FD03C08FEF9FEF2CC022FF5D
:100A000016C046815781248135814217530744F42B
:100A1000A081B1819D012F5F3F4F318320838C9353
:100A2000268137812F5F3F4F3783268314C08B0188
:100A3000EC01FB010084F185E02D0995892BE1F69D
:100A4000D80116968D919C911797019617969C93B5
:100A50008E931697CE01DF91CF911F910F9108953C
:100A6000FA01AA27283051F1203181F1E8946F93DF
:100A70006E7F6E5F7F4F8F4F9F4FAF4FB1E03ED085
:100A8000B4E03CD0670F781F891F9A1FA11D680F23
:100A9000791F8A1F911DA11D6A0F711D811D911D56
:100AA000A11D20D009F468943F912AE0269F1124CB
:100AB0003019305D3193DEF6CF010895462F47702F
:100AC000405D4193B3E00FD0C9F7F6CF462F4F708A
:100AD000405D4A3318F0495D31FD4052419302D0E8
:100AE000A9F7EACFB4E0A69597958795779567958E
:100AF000BA95C9F700976105710508959B01AC018E
:100B00000A2E06945795479537952795BA95C9F7B4
:100B1000620F731F841F951FA01D08952F923F928F
:100B20004F925F926F927F928F929F92AF92BF92FD
:100B3000CF92DF92EF92FF920F931F93CF93DF93A9
:100B4000CDB7DEB7CA1BDB0B0FB6F894DEBF0FBE06
:100B5000CDBF09942A88398848885F846E847D8453
:100B60008C849B84AA84B984C884DF80EE80FD8055
:100B70000C811B81AA81B981CE0FD11D0FB6F894CB
:0E0B8000DEBF0FBECDBFED010895F894FFCF8C
:100B8E003F06DB4F666D7D07FF6F25643A25643A9D
:040B9E0025640000CA
:00000001FF
