:100000000C942A000C9434000C9434000C943400AA
:100010000C9434000C9434000C9434000C94340090
:100020000C9434000C9434000C9434000C94340080
:100030000C9434000C9434000C9434000C94340070
:100040000C9434000C9434000C9434000C94340060
:100050000C94340011241FBECFE5D8E0DEBFCDBF25
:100060000E9436000C9455000C9400008CEC8BBB65
:1000700085E58ABB20E090E081E030E044E0C99B68
:1000800006C0992321F09BB398279BBB932FC99B54
:10009000982FCB9B06C0222321F02BB324272BBB08
:0E00A000232FCB99ECCF282FEACFF894FFCF77
:00000001FF
