:100000000C942A000C9434000C9434000C943400AA
:100010000C9434000C9434000C9434000C94340090
:100020000C9434000C9434000C9434000C94340080
:100030000C9434000C9434000C9434000C94340070
:100040000C9434000C9434000C9434000C94340060
:100050000C94340011241FBECFE5D8E0DEBFCDBF25
:100060000E9436000C946E000C9400008FEF8BBB46
:100070001ABA91E098BB87BB20E090E031E040E005
:1000800050E8C89904C0211102C09327232FC899B2
:10009000242F911113C06FE976E881E06150704020
:1000A0008040E1F700C0000088B3880F88BB88B3A8
:1000B0008111E7CF38BBE5CF58BBE3CF6FE976E8D6
:1000C00081E0615070408040E1F700C0000088B3DB
:1000D000869588BB88B3882379F3D3CFF894FFCF74
:00000001FF
