:100000000C942A000C9434000C9434000C943400AA
:100010000C9434000C9434000C9434000C94340090
:100020000C9434000C9434000C9434000C94340080
:100030000C9434000C9434000C9434000C94340070
:100040000C9434000C9434000C9434000C94340060
:100050000C94340011241FBECFE5D8E0DEBFCDBF25
:100060000E9436000C94CC000C9400008FEF8ABBE9
:1000700087BB84BB8FE781BB8EE48BBB8FEB88BBD8
:100080008EEF85BB80E090E00F2EF1EFEF2EF02D8C
:100090000F2EF9EFFF2EF02D0F2EFEE5BF2EF02DC7
:1000A0000F2EF9EBCF2EF02D0F2EFCEFDF2EF02DC3
:1000B000C7EFBFE6AFEFF7E2EDE77DE666E65FE4A8
:1000C0004BED36E02FE3009711F422BB5AC081308C
:1000D000910511F432BB55C08230910511F442BB39
:1000E00050C08330910511F452BB4BC08430910550
:1000F00011F462BB46C08530910511F472BB41C05A
:100100008630910511F4E2BB3CC08730910511F4B3
:10011000F2BB37C08830910511F4A2BB32C08930E0
:10012000910511F4B2BB2DC08A30910511F4C2BB08
:1001300028C08B30910511F4D2BA23C08C309105C0
:1001400011F4C2BA1EC08D30910511F4B2BA19C0B3
:100150008E30910511F4F2BA14C08F30910511F46C
:10016000E2BA0FC08031910561F412BA0FE916E8C6
:1001700081E0015010408040E1F700C000008FEFA7
:100180009FEFDFE906E811E0D15000401040E1F7B1
:0C01900000C00000019697CFF894FFCF4C
:00000001FF
