:100000000C942A000C9434000C9434000C943400AA
:100010000C9434000C9434000C9434000C94340090
:100020000C9434000C9434000C9434000C94340080
:100030000C9434000C9434000C9434000C94340070
:100040000C9434000C9434000C9434000C94340060
:100050000C94340011241FBECFE5D8E0DEBFCDBF25
:100060000E94A7000C94AB000C9400008FEF8ABB99
:1000700087BB84BB81BB1BBA18BA15BA12BA0895E4
:10008000CF93DF93CDB7DEB760970FB6F894DEBF9E
:100090000FBECDBF21E0298392E09A8384E08B8359
:1000A00038E03C839D838E833F83288789873A8706
:1000B0002B879C873D872E879F87888BFE013196F3
:1000C0007E0115E0E10EF11C9E01275F3F4FCE013E
:1000D0000D96B7011BBA18BA15BA12BA41914BBBAB
:1000E0004FE35DE0A3E041505040A040E1F700C085
:1000F00000001BBAD7014D917D0148BBBFE31DE055
:1001000043E0B15010404040E1F700C0000018BA91
:10011000D9014D919D0145BBBFE31DE043E0B150C6
:1001200010404040E1F700C0000015BADC014D91DD
:10013000CD0142BBBFE31DE043E0B1501040404061
:10014000E1F700C00000E617F70721F6B7CF0E94DD
:0A01500036000E944000F894FFCF33
:00000001FF
