:100000000C942A000C9434000C9434000C943400AA
:100010000C9434000C9434000C9434000C94340090
:100020000C9434000C9434000C9434000C94340080
:100030000C9434000C9434000C9434000C94340070
:100040000C9434000C9434000C9434000C94340060
:100050000C94340011241FBECFE5D8E0DEBFCDBF25
:100060000E9436000C944E000C9400001BBA81E0F4
:100070008ABBD89A2FE986E891E0215080409040D1
:10008000E1F700C00000D8982FE986E891E0215000
:1000900080409040E1F700C00000EBCFF894FFCF24
:00000001FF
