:100000000C942A000C943F000C943F000C943F0089
:100010000C943F000C943F000C943F000C943F0064
:100020000C943F000C943F000C943F000C943F0054
:100030000C943F000C943F000C943F000C943F0044
:100040000C943F000C943F000C943F000C943F0034
:100050000C943F0011241FBECFE5D8E0DEBFCDBF1A
:1000600010E0A0E6B0E0E6E2F1E002C005900D92FB
:10007000A037B107D9F70E9441000C9491000C946D
:100080000000CF93DF93CDB7DEB760970FB6F8943B
:10009000DEBF0FBECDBF80E1E0E6F0E0DE011196ED
:1000A00001900D928A95E1F78FEF81BB84BB1ABA5C
:1000B0008BBB40E050E02FEF3FEF60E091E0862FF8
:1000C000C89903C0811101C0892FC89BF9CF332380
:1000D00044F0E1E0F0E0EC0FFD1FE20FF31F808140
:1000E00082BBE1E0F0E0EC0FFD1FE40FF51F808123
:1000F00085BB2F5F3F4F2031310524F04F5F5F4FAD
:1001000020E030E04031510514F040E050E07FE362
:100110008DE0E3E071508040E040E1F700C0000076
:06012000CECFF894FFCFE2
:100126003F06DB4F666D7D07FF6FF7FCB95EF9F1A1
:00000001FF
