:100000000C942A000C943F000C943F000C943F0089
:100010000C943F000C943F000C943F000C943F0064
:100020000C943F000C943F000C943F000C943F0054
:100030000C943F000C943F000C943F000C943F0044
:100040000C943F000C943F000C943F000C943F0034
:100050000C943F0011241FBECFE5D8E0DEBFCDBF1A
:1000600010E0A0E6B0E0E0E6F1E002C005900D92FD
:10007000AA36B107D9F70E9441000C94AE000C9447
:100080000000CF93DF93CDB7DEB72A970FB6F89471
:10009000DEBF0FBECDBF8AE0E0E6F0E0DE011196E4
:1000A00001900D928A95E1F79FEF50E09ABB97BBC4
:1000B00094BB91BB98BB9E012F5F3F4F4FEFD89AE7
:1000C000FE013796829185BB6FE37DE083E061504E
:1000D00070408040E1F700C000002E173F0791F705
:1000E00015BAD898DB9A58BB6FE976E881E0615081
:1000F00070408040E1F700C0000098BB6FE976E8EF
:1001000081E0615070408040E1F700C0000048BBD2
:10011000DB98DE9A8B8182BB6FE37DE083E06150E8
:1001200070408040E1F700C000008A8182BB6FE32D
:100130007DE083E0615070408040E1F700C0000046
:10014000898182BB6FE37DE083E061507040804035
:10015000E1F700C0000012BADE98B1CFF894FFCFEB
:0A0160003F06DB4F666D7D07FF6F61
:00000001FF
