:100000000C942A000C943F000C943F000C943F0089
:100010000C943F000C943F000C943F000C943F0064
:100020000C943F000C943F000C943F000C943F0054
:100030000C943F000C943F000C943F000C943F0044
:100040000C943F000C943F000C943F000C943F0034
:100050000C943F0011241FBECFE5D8E0DEBFCDBF1A
:1000600010E0A0E6B0E0EAEBF1E002C005900D92EE
:10007000A037B107D9F70E9441000C94DB000C9423
:100080000000CF93DF93CDB7DEB760970FB6F8943B
:10009000DEBF0FBECDBF80E1E0E6F0E0DE011196ED
:1000A00001900D928A95E1F78FEF8ABB87BB84BBE5
:1000B00081BB88BB41E00AE010E06894FF24F3F8BC
:1000C0004BBB2EE030E0C901B8010E94B300E1E073
:1000D000F0E0EC0FFD1FE80FF91F808185BBE1E028
:1000E000F0E0EC0FFD1FE60FF71F8081809582BBCB
:1000F0005FE38DE093E0515080409040E1F700C015
:10010000000021503109F8F6FBBA2CE030E0C901BB
:10011000B8010E94B300E1E0F0E0EC0FFD1FE80F32
:10012000F91F808185BBE1E0F0E0EC0FFD1FE60FD9
:10013000F71F8081809582BB8FE39DE053E0815063
:1001400090405040E1F700C0000021503109F8F61E
:100150001BBA9FE32DE053E0915020405040E1F75F
:1001600000C00000ADCF97FB072E16F4009407D017
:1001700077FD09D00E94C70007FC05D03EF490959A
:1001800081959F4F0895709561957F4F0895AA1BA3
:10019000BB1B51E107C0AA1FBB1FA617B70710F072
:1001A000A61BB70B881F991F5A95A9F780959095A4
:0A01B000BC01CD010895F894FFCFC3
:1001BA003F06DB4F666D7D07FF6FF7FCB95EF9F10D
:00000001FF
