:100000000C942A000C943F000C943F000C943F0089
:100010000C943F000C943F000C943F000C943F0064
:100020000C943F000C943F000C943F000C943F0054
:100030000C943F000C943F000C943F000C943F0044
:100040000C943F000C943F000C943F000C943F0034
:100050000C943F0011241FBECFE5D8E0DEBFCDBF1A
:1000600010E0A0E6B0E0ECEEF3E002C005900D92E7
:10007000AA37B107D9F70E9441000C94F4010C94FF
:100080000000CF93DF93CDB7DEB769970FB6F89432
:10009000DEBF0FBECDBF8CE0E0E6F0E0DE011196E2
:1000A00001900D928A95E1F78DE0ECE6F0E0DE013B
:1000B0001D9601900D928A95E1F787EC8ABB80E846
:1000C0008BBB8FEF87BB88BB84BB81BB6894AA24A2
:1000D000A1F8B12C6894CC24C2F8D12CF0E0E0E077
:1000E00040E00AE010E00F2EF4E6EF2EF12CF02DA8
:1000F00030E021E0CE994BC0D89ADA98C601B80119
:100100000E94CC01ADE0B0E0AC0FBD1FA80FB91F3D
:100110008C9182BBCB01B8010E94CC01ADE0B0E074
:10012000AC0FBD1FA80FB91F8C9185BBC601B701CD
:100130000E94CC01A1E0B0E0AC0FBD1FA60FB71F1D
:100140008C9188BB58EEC51653E0D50614F0C12C2F
:10015000D12CCB9B06C0411104C08FEFC81AD80A1E
:10016000422FCB9B432FCC9B06C0E11104C09AE0E9
:10017000C90ED11CE22FCC9BE32FCD9B06C0F11101
:1001800004C054E6C50ED11CF22FCD9BF32FCE9B9D
:100190004BC0DA9AD898C501B8010E94CC01ADE0F5
:1001A000B0E0AC0FBD1FA80FB91F8C9182BBCB0173
:1001B000B8010E94CC01ADE0B0E0AC0FBD1FA80FAC
:1001C000B91F8C9185BBC501B7010E94CC01A1E08C
:1001D000B0E0AC0FBD1FA60FB71F8C9188BB88EE97
:1001E000A81683E0B80614F0A12CB12CCB9B06C056
:1001F000411104C09FEFA91AB90A422FCB9B432F8C
:10020000CC9B06C0E11104C05AE0A50EB11CE22F40
:10021000CC9BE32FCD9B06C0F11104C084E6A80E51
:10022000B11CF22FCD9BF32FCF9964CF0AE010E0E1
:100230000F2EF4E6EF2EF12CF02D4FEFD89ADA982E
:10024000DD208CF19601C901B8010E94CC01EDE0DE
:10025000F0E0EC0FFD1FE80FF91F808182BBCB019E
:10026000B8010E94CC01EDE0F0E0EC0FFD1FE80FBB
:10027000F91F808185BBC901B7010E94CC01E1E073
:10028000F0E0EC0FFD1FE60FF71F808188BB9FE3B6
:100290005DE083E0915050408040E1F700C00000F5
:1002A0002150310980F6D898D99A8B8588BB2FE9DF
:1002B00056E881E0215050408040E1F700C0000046
:1002C0008F8985BB9FE926E851E09150204050403E
:1002D000E1F700C00000888D82BB8FE996E821E03D
:1002E000815090402040E1F700C0000048BB5FE92A
:1002F00086E891E0515080409040E1F700C0000056
:1003000015BA2FE956E881E0215050408040E1F7CE
:1003100000C0000012BA9FE926E851E09150204049
:100320005040E1F700C00000D998DA9AD898BB2075
:100330008CF19501C901B8010E94CC01EDE0F0E01B
:10034000EC0FFD1FE80FF91F808182BBCB01B801C4
:100350000E94CC01EDE0F0E0EC0FFD1FE80FF91F6B
:10036000808185BBC901B7010E94CC01E1E0F0E0CA
:10037000EC0FFD1FE60FF71F808188BB8FE39DE028
:1003800053E0815090405040E1F700C00000215000
:10039000310980F6DA9852CF97FB072E16F40094B5
:1003A00007D077FD09D00E94E00107FC05D03EF49C
:1003B000909581959F4F0895709561957F4F089511
:1003C000AA1BBB1B51E107C0AA1FBB1FA617B7077B
:1003D00010F0A61BB70B881F991F5A95A9F7809597
:0C03E0009095BC01CD010895F894FFCF6A
:1003EC00C0F9A4B0999282F8809088FF3F06DB4F49
:0A03FC00666D7D07FF6F717700004A
:00000001FF
