:100000000C942A000C943F000C943F000C943F0089
:100010000C943F000C943F000C943F000C943F0064
:100020000C943F000C943F000C943F000C943F0054
:100030000C943F000C943F000C943F000C943F0044
:100040000C943F000C943F000C943F000C943F0034
:100050000C943F0011241FBECFE5D8E0DEBFCDBF1A
:1000600010E0A0E6B0E0EEE5F2E002C005900D92EF
:10007000AA37B107D9F70E94F1000C942D010C9416
:1000800000009BB39F70282F207F922B9BBBD8989A
:10009000D99A35E03A95F1F70000D998EFE8F1E008
:1000A0003197F1F700C000002BB32F70F0E18F9F64
:1000B000C0011124822B8BBBD99A35E03A95F1F718
:1000C0000000D9988FE39FE10197F1F700C000008D
:1000D00008959BB39F70282F207F922B9BBBD89AAB
:1000E000D99A35E03A95F1F70000D998EFE8F1E0B8
:1000F0003197F1F700C000002BB32F70F0E18F9F14
:10010000C0011124822B8BBBD99A35E03A95F1F7C7
:100110000000D9988FE39FE10197F1F700C000003C
:1001200008958FEF8ABB2FEF83EC99E02150804038
:100130009040E1F700C0000083E30E94410082E3A9
:100140000E94410088E20E9441008CE00E94410030
:1001500081E00E9441008FE39FE10197F1F700C029
:10016000000082E80E9441000895CF93DF9300D001
:1001700000D0CDB7DEB790E8998390EC9A8394E9EC
:100180009B8394ED9C83FE01E60FF11D9181890F05
:100190000E9441000F900F900F900F90DF91CF9130
:1001A00008950F931F93CF93FC018081882359F00A
:1001B0008F01C0E00E946900CF5FF801EC0FF11DD4
:1001C00080818111F7CFCF911F910F91089581E028
:1001D0000E9441008FE39FE10197F1F700C000000A
:1001E00008958FEF84BB0E94910087EA91E6019702
:1001F000F1F700C000000E94E70060E083E00E9489
:10020000B50080E690E00E94D10087EA91E6019770
:10021000F1F700C0000060E086E00E94B50083E6D0
:1002200090E00E94D10087EA91E60197F1F700C0C3
:10023000000062E085E00E94B5008BE690E00E943D
:10024000D1009FE32DE083E0915020408040E1F712
:0E02500000C000000E94E700C8CFF894FFCF66
:10025E004D79004E616D6520497300466172696487
:0A026E002052617369646F7600008E
:00000001FF
