:100000000C942A000C9447000C9447000C94470071
:100010000C9447000C9447000C9447000C94470044
:100020000C9447000C9447000C9447000C94470034
:100030000C9447000C9447000C9447000C94470024
:100040000C9447000C9447000C9447000C94470014
:100050000C94470011241FBECFE5D8E0DEBFCDBF12
:1000600011E0A0E6B0E0E8EBFCE002C005900D92E4
:10007000AC31B107D9F721E0ACE1B1E001C01D928C
:10008000A033B207E1F70E949D020C945A060C942B
:1000900000009BB39F70282F207F922B9BBBD8988A
:1000A000D99A35E03A95F1F70000D998EFE8F1E0F8
:1000B0003197F1F700C000002BB32F70F0E18F9F54
:1000C000C0011124822B8BBBD99A35E03A95F1F708
:1000D0000000D9988FE39FE10197F1F700C000007D
:1000E00008959BB39F70282F207F922B9BBBD89A9B
:1000F000D99A35E03A95F1F70000D998EFE8F1E0A8
:100100003197F1F700C000002BB32F70F0E18F9F03
:10011000C0011124822B8BBBD99A35E03A95F1F7B7
:100120000000D9988FE39FE10197F1F700C000002C
:1001300008958FEF8ABB2FEF83EC99E02150804028
:100140009040E1F700C0000083E30E94490082E391
:100150000E94490088E20E9449008CE00E94490008
:1001600081E00E9449008FE39FE10197F1F700C011
:10017000000082E80E9449000895CF93DF9300D0E9
:1001800000D0CDB7DEB790E8998390EC9A8394E9DC
:100190009B8394ED9C83FE01E60FF11D9181890FF5
:1001A0000E9449000F900F900F900F90DF91CF9118
:1001B00008950F931F93CF93FC018081882359F0FA
:1001C0008F01C0E00E947100CF5FF801EC0FF11DBC
:1001D00080818111F7CFCF911F910F91089581E018
:1001E0000E9449008FE39FE10197F1F700C00000F2
:1001F0000895EF92FF920F931F93CF93DF930E9486
:10020000EF0088E690E00E94D900B29BFECF83E227
:1002100094EF0197F1F700C00000C0916400B29B19
:1002200031C00F2EF9E7EF2EF0E0FF2EF02D0EE19A
:1002300011E0B09904C0CF5FCC3308F0C0E0B199B1
:1002400004C0C150CC3308F0CBE361E080E00E94F1
:10025000BD001F92CF93FF92EF921F930F930E94C6
:100260007003C8010E94D90087EA91E60197F1F76F
:1002700000C000000F900F900F900F900F900F9004
:10028000B299D7CF0E94EF008FE790E00E94D9008B
:10029000B29BFECF83E294EF0197F1F700C000001C
:1002A000D0916600B29B31C00F2EF9E7EF2EF0E03F
:1002B000FF2EF02D0EE111E0B09904C0DF5FD831C0
:1002C00008F0D0E0B19904C0D150D83108F0D7E19E
:1002D00061E080E00E94BD001F92DF93FF92EF92E9
:1002E0001F930F930E947003C8010E94D90087EAF0
:1002F00091E60197F1F700C000000F900F900F906A
:100300000F900F900F90B299D7CFB29BFECF87EA94
:1003100091E60197F1F700C000000E94EF008EE81F
:1003200090E00E94D90061E080E00E94BD008DE96C
:1003300090E00E94D90086B383708330E1F30E947D
:10034000EF00B09914C08CEA90E00E94D9008D2F84
:1003500090E090936700809366008C2F90E09093DC
:100360006500809364001092630010926200B1995E
:1003700004C087EB90E00E94D9009FE926E881E065
:10038000915020408040E1F700C00000DF91CF9104
:100390001F910F91FF90EF900895EF92FF920F93AE
:1003A0001F93CF93DF930E94EF0084EC90E00E94B4
:1003B000D900B39BFECF83E294EF0197F1F700C021
:1003C0000000C0911C01B39B31C00F2EF9E7EF2E46
:1003D000F0E0FF2EF02D0EE111E0B09904C0CF5FE8
:1003E000CC3308F0C0E0B19904C0C150CC3308F060
:1003F000CBE361E080E00E94BD001F92CF93FF92AB
:10040000EF921F930F930E947003C8010E94D900BE
:1004100087EA91E60197F1F700C000000F900F9076
:100420000F900F900F900F90B399D7CF0E94EF00CD
:1004300085ED90E00E94D900B39BFECF83E294EF5C
:100440000197F1F700C00000D0916000B39B31C06C
:100450000F2EF9E7EF2EF0E0FF2EF02D0EE111E068
:10046000B09904C0DF5FD83108F0D0E0B19904C082
:10047000D150D83108F0D7E161E080E00E94BD00A2
:100480001F92DF93FF92EF921F930F930E947003CE
:10049000C8010E94D90087EA91E60197F1F700C0F0
:1004A00000000F900F900F900F900F900F90B39946
:1004B000D7CFB39BFECF87EA91E60197F1F700C053
:1004C00000000E94EF0086EE90E00E94D90061E0FB
:1004D00080E00E94BD008DE990E00E94D90086B3C3
:1004E00083708330E1F30E94EF00B09910C084EF75
:1004F00090E00E94D9008D2F90E09093610080934E
:1005000060008C2F90E090931D0180931C01B199A5
:1005100004C08FEF90E00E94D9009FE926E881E0B7
:10052000915020408040E1F700C00000DF91CF9162
:100530001F910F91FF90EF9008950E9499000E94E3
:10054000EF008FEF84BB17BA8FE088BB0CE011E09F
:10055000CEE1D1E0FF24FA94809162009091630093
:1005600001968C33910529F090936300809362008B
:100570000DC010926300109262008091640090910F
:1005800065000196909365008093640080916400FB
:1005900090916500CC9769F4109265001092640008
:1005A0008091660090916700019690936700809318
:1005B00066008091660090916700489709F066C0D8
:1005C000109267001092660010926500109264000D
:1005D00010926300109262000E94EF00809163000D
:1005E0008F93809162008F93809165008F938091AB
:1005F00064008F93809167008F93809166008F9342
:100600001F930F93DF93CF930E947003CE010E943C
:10061000D90010922F0110922E018DB79EB70A9625
:100620000FB6F8949EBF0FBE8DBF83ED90E3019788
:10063000F1F700C00000B29B0E94F900B39B0E943A
:10064000CD0180912E0190912F01019690932F0161
:1006500080932E0144974CF32091660030916700FF
:1006600080916000909161002817390769F420910A
:1006700064003091650080911C0190911D01281744
:10068000390711F4F5BA68CF15BA66CF0E94EF00AA
:10069000809163008F93809162008F9380916500B9
:1006A0008F93809164008F93809167008F938091E6
:1006B00066008F931F930F93DF93CF930E94700375
:1006C000CE010E94D90010922F0110922E018DB7F9
:1006D0009EB70A960FB6F8949EBF0FBE8DBFA5CFEA
:1006E000AEE0B0E0E6E7F3E00C9431060D891E8938
:1006F00086E08C831A8309838FEF9FE79E838D8327
:10070000AE01475E5F4F6F89788DCE0101960E94E2
:100710009203EF81F885E00FF11F10822E96E4E03E
:100720000C944D06ABE0B0E0E8E9F3E00C9423064E
:100730006C017B018A01FC0117821682838181FF93
:10074000CCC1CE0101963C01F6019381F70193FDE6
:10075000859193FF81917F01882309F4BAC1853285
:1007600039F493FD859193FF81917F01853229F4BE
:10077000B60190E00E948905E7CF912C212C312C05
:10078000FFE1F315D8F08B3279F038F4803279F04C
:100790008332A1F4232D20611DC08D3261F080339E
:1007A00069F4232D216016C0832D8260382EE32D3D
:1007B000E4603E2E2AC0F32DF8601DC037FC2DC02A
:1007C00020ED280F2A3040F08E32B9F436FC81C17A
:1007D000232D2064322E19C036FE06C08AE0989E72
:1007E000200D1124922E11C0EAE02E9E200D11241E
:1007F000222EF32DF0623F2E08C08C3621F4832D7B
:100800008068382E02C0883641F4F70193FD859147
:1008100093FF81917F018111B3CF982F9F7D9554D4
:10082000933028F40C5F1F4F9FE399830DC08336EC
:1008300031F0833771F0833509F059C021C0F801D8
:10084000808189830E5F1F4F88248394912C5301EC
:1008500013C02801F2E04F0E511CF801A080B180B6
:1008600036FE03C0692D70E002C06FEF7FEFC50157
:100870000E947E054C018201F32DFF773F2E16C0AA
:10088000280122E0420E511CF801A080B18036FE02
:1008900003C0692D70E002C06FEF7FEFC5010E94B9
:1008A00073054C01F32DF0683F2E820133FC1BC011
:1008B000822D90E088169906B0F4B60180E290E0AF
:1008C0000E9489052A94F4CFF50137FC859137FE03
:1008D00081915F01B60190E00E94890521102A9460
:1008E00021E0821A91088114910471F7E8C08436DE
:1008F00011F0893641F5F80137FE07C0608171813A
:10090000828193810C5F1F4F08C060817181072E27
:10091000000C880B990B0E5F1F4FF32DFF763F2EB7
:1009200097FF09C090958095709561957F4F8F4F87
:100930009F4FF0683F2E2AE030E0A3010E94C505DA
:10094000882E861845C0853731F4232D2F7EB22E90
:100950002AE030E025C0932D997FB92E8F36C1F063
:1009600018F4883579F0B5C0803719F0883721F050
:10097000B0C0E92FE061BE2EB4FE0DC0FB2DF460C7
:10098000BF2E09C034FE0AC0292F2660B22E06C031
:1009900028E030E005C020E130E002C020E132E094
:1009A000F801B7FE07C060817181828193810C5F7D
:1009B0001F4F06C06081718180E090E00E5F1F4F85
:1009C000A3010E94C505882E8618FB2DFF773F2EB8
:1009D00036FE0DC0232D2E7FA22E891458F434FE2E
:1009E0000BC032FC09C0832D8E7EA82E05C0B82C0A
:1009F000A32C03C0B82C01C0B92CA4FE0FC0FE016B
:100A0000E80DF11D8081803321F49A2D997EA92E65
:100A100009C0A2FE06C0B394B39404C08A2D8678A0
:100A200009F0B394A3FC11C0A0FE06C0B21488F470
:100A3000280C922C9B180EC0B21460F4B60180E210
:100A400090E00E948905B394F7CFB21418F42B18E4
:100A500002C0982C212CA4FE10C0B60180E390E0C7
:100A60000E948905A2FE17C0A1FC03C088E790E0A0
:100A700002C088E590E0B6010CC08A2D867859F056
:100A8000A1FE02C08BE201C080E2A7FC8DE2B601AC
:100A900090E00E948905891438F4B60180E390E063
:100AA0000E9489059A94F7CF8A94F301E80DF11D0D
:100AB0008081B60190E00E9489058110F5CF222047
:100AC00009F442CEB60180E290E00E9489052A94A2
:100AD000F6CFF6018681978102C08FEF9FEF2B96AC
:100AE000E2E10C943F06FC0105906150704001105A
:100AF000D8F7809590958E0F9F1F0895FC01615047
:100B0000704001900110D8F7809590958E0F9F1F2F
:100B100008950F931F93CF93DF93FB01238121FD52
:100B200003C08FEF9FEF2CC022FF16C04681578174
:100B3000248135814217530744F4A081B1819D017E
:100B40002F5F3F4F318320838C93268137812F5F26
:100B50003F4F3783268314C08B01EC01FB010084D7
:100B6000F185E02D0995892BE1F6D80116968D9136
:100B70009C911797019617969C938E931697CE018A
:100B8000DF91CF911F910F910895FA01AA27283084
:100B900051F1203181F1E8946F936E7F6E5F7F4F4A
:100BA0008F4F9F4FAF4FB1E03ED0B4E03CD0670FC6
:100BB000781F891F9A1FA11D680F791F8A1F911D19
:100BC000A11D6A0F711D811D911DA11D20D009F469
:100BD00068943F912AE0269F11243019305D3193AB
:100BE000DEF6CF010895462F4770405D4193B3E094
:100BF0000FD0C9F7F6CF462F4F70405D4A3318F03B
:100C0000495D31FD4052419302D0A9F7EACFB4E0EB
:100C1000A6959795879577956795BA95C9F70097A3
:100C20006105710508959B01AC010A2E0694579544
:100C3000479537952795BA95C9F7620F731F841F9B
:100C4000951FA01D08952F923F924F925F926F9231
:100C50007F928F929F92AF92BF92CF92DF92EF924C
:100C6000FF920F931F93CF93DF93CDB7DEB7CA1BCD
:100C7000DB0B0FB6F894DEBF0FBECDBF09942A88F8
:100C8000398848885F846E847D848C849B84AA84A0
:100C9000B984C884DF80EE80FD800C811B81AA812D
:100CA000B981CE0FD11D0FB6F894DEBF0FBECDBFF8
:080CB000ED010895F894FFCF57
:100CB8000C0037003B00170053657474696E672099
:100CC8004D696E7574653A200025303275200053E1
:100CD800657474696E6720486F75723A20004172B6
:100CE8006520796F7520737572653F200055503DFA
:100CF80079657320446F776E3D4E6F00436C6F6368
:100D08006B20446F6E6500436C6F636B2043616EAC
:100D180063656C0053657474696E6720416C617219
:100D28006D204D3A0053657474696E6720416C619B
:100D3800726D20483A0041726520796F752073758D
:100D480072653F00416C61726D20446F6E650041B1
:100D58006C61726D2043616E63656C00253032757D
:0C0D68003A253032753A25303275000013
:00000001FF
