:100000000C942A000C9434000C9434000C943400AA
:100010000C9434000C9434000C9434000C94340090
:100020000C9434000C9434000C9434000C94340080
:100030000C9434000C9434000C9434000C94340070
:100040000C9434000C9434000C9434000C94340060
:100050000C94340011241FBECFE5D8E0DEBFCDBF25
:100060000E9436000C946E000C9400008FEF8ABB47
:1000700081BB90E8D89A2FE936E841E02150304022
:100080004040E1F700C0000027E030E08BB3880F6C
:100090008BBB5FE986E8E1E051508040E040E1F74A
:1000A00000C000002150310989F7979AE3EDF0E391
:1000B0003197F1F700C0000092BB82B3813061F04C
:1000C00082B3869582BBE3EDF0E33197F1F700C090
:1000D000000082B38130A1F79098CCCFF894FFCF85
:00000001FF
